{
  "contractName": "Deadquiz",
  "abi": [
    {
      "inputs": [],
      "payable": false,
      "stateMutability": "nonpayable",
      "type": "constructor"
    },
    {
      "constant": true,
      "inputs": [],
      "name": "deadTime",
      "outputs": [
        {
          "internalType": "uint256",
          "name": "",
          "type": "uint256"
        }
      ],
      "payable": false,
      "stateMutability": "view",
      "type": "function"
    },
    {
      "constant": true,
      "inputs": [],
      "name": "owner",
      "outputs": [
        {
          "internalType": "address",
          "name": "",
          "type": "address"
        }
      ],
      "payable": false,
      "stateMutability": "view",
      "type": "function"
    },
    {
      "constant": true,
      "inputs": [],
      "name": "setStatus",
      "outputs": [
        {
          "internalType": "enum Deadquiz.status",
          "name": "",
          "type": "uint8"
        }
      ],
      "payable": false,
      "stateMutability": "view",
      "type": "function"
    },
    {
      "constant": true,
      "inputs": [],
      "name": "time",
      "outputs": [
        {
          "internalType": "uint256",
          "name": "",
          "type": "uint256"
        }
      ],
      "payable": false,
      "stateMutability": "view",
      "type": "function"
    },
    {
      "constant": false,
      "inputs": [
        {
          "internalType": "string",
          "name": "input",
          "type": "string"
        }
      ],
      "name": "aliveCheck",
      "outputs": [],
      "payable": false,
      "stateMutability": "nonpayable",
      "type": "function"
    },
    {
      "constant": true,
      "inputs": [],
      "name": "getStatus",
      "outputs": [
        {
          "internalType": "string",
          "name": "",
          "type": "string"
        }
      ],
      "payable": false,
      "stateMutability": "view",
      "type": "function"
    }
  ],
  "bytecode": "0x608060405234801561001057600080fd5b5033600360006101000a81548173ffffffffffffffffffffffffffffffffffffffff021916908373ffffffffffffffffffffffffffffffffffffffff16021790555060008060006101000a81548160ff0219169083600281111561007057fe5b0217905550607842016002819055506105db8061008e6000396000f3fe608060405234801561001057600080fd5b50600436106100625760003560e01c806316ada547146100675780634e69d560146100855780638da5cb5b14610108578063c033662914610152578063ec1aa8131461017e578063f13a150614610239575b600080fd5b61006f610257565b6040518082815260200191505060405180910390f35b61008d61025d565b6040518080602001828103825283818151815260200191508051906020019080838360005b838110156100cd5780820151818401526020810190506100b2565b50505050905090810190601f1680156100fa5780820380516001836020036101000a031916815260200191505b509250505060405180910390f35b61011061037e565b604051808273ffffffffffffffffffffffffffffffffffffffff1673ffffffffffffffffffffffffffffffffffffffff16815260200191505060405180910390f35b61015a6103a4565b6040518082600281111561016a57fe5b60ff16815260200191505060405180910390f35b6102376004803603602081101561019457600080fd5b81019080803590602001906401000000008111156101b157600080fd5b8201836020820111156101c357600080fd5b803590602001918460018302840111640100000000831117156101e557600080fd5b91908080601f016020809104026020016040519081016040528093929190818152602001838380828437600081840152601f19601f8201169050808301925050505050505091929192905050506103b6565b005b6102416105a0565b6040518082815260200191505060405180910390f35b60015481565b60606002544211156102a6576040518060400160405280600481526020017f6465616400000000000000000000000000000000000000000000000000000000815250905061037b565b6000809054906101000a900460ff1660028111156102c057fe5b600060028111156102cd57fe5b1415610310576040518060400160405280600781526020017f756e6b6e6f776e00000000000000000000000000000000000000000000000000815250905061037b565b6000809054906101000a900460ff16600281111561032a57fe5b6001600281111561033757fe5b141561037a576040518060400160405280600581526020017f616c697665000000000000000000000000000000000000000000000000000000815250905061037b565b5b90565b600360009054906101000a900473ffffffffffffffffffffffffffffffffffffffff1681565b6000809054906101000a900460ff1681565b600360009054906101000a900473ffffffffffffffffffffffffffffffffffffffff1673ffffffffffffffffffffffffffffffffffffffff163373ffffffffffffffffffffffffffffffffffffffff1614610479576040517f08c379a000000000000000000000000000000000000000000000000000000000815260040180806020018281038252600d8152602001807f496e76616c6964204f776e65720000000000000000000000000000000000000081525060200191505060405180910390fd5b60405160200180807f616c697665000000000000000000000000000000000000000000000000000000815250600501905060405160208183030381529060405280519060200120816040516020018082805190602001908083835b602083106104f757805182526020820191506020810190506020830392506104d4565b6001836020036101000a0380198251168184511680821785525050505050509050019150506040516020818303038152906040528051906020012014801561054157506002544211155b1561056e5760016000806101000a81548160ff0219169083600281111561056457fe5b021790555061059d565b60025442111561059c5760026000806101000a81548160ff0219169083600281111561059657fe5b02179055505b5b50565b6002548156fea265627a7a72315820e187fe48bcc9e31e554b44df06a22546745faf316ceb66d8f89fb99c88972d2464736f6c634300050c0032",
  "source": "pragma solidity >=0.4.21 <0.7.0;\n\ncontract Deadquiz {\n    enum status {\n    unknown,alive,missing\n    }\n  \n    status public setStatus;\n    uint public time;\n    uint public deadTime;\n    address public owner;\n\n    constructor() public{\n        owner = msg.sender;\n        setStatus = status.unknown;\n        deadTime = block.timestamp + 120 seconds;\n    }\n\n    modifier isOwner() {\n        require(msg.sender == owner, \"Invalid Owner\"); _;\n    }\n\n    function aliveCheck(string memory input) public isOwner(){\n            if(keccak256(abi.encodePacked(input)) == keccak256(abi.encodePacked(\"alive\")) && block.timestamp <= deadTime){\n                setStatus = status.alive;\n            }else if(block.timestamp > deadTime){\n                setStatus = status.missing;\n            }\n        }\n\n    function getStatus() public view returns(string memory){\n        if(block.timestamp > deadTime){\n            return \"dead\";\n        }else if(status.unknown == setStatus){\n            return \"unknown\";\n        }else if(status.alive == setStatus){\n            return \"alive\";\n        }\n    }\n}\n",
  "sourcePath": "/Users/midhilkari/Desktop/SolodityQuiz/contracts/Deadquiz.sol",
  "compiler": {
    "name": "solc",
    "version": "0.5.12+commit.7709ece9.Emscripten.clang"
  },
  "schemaVersion": "3.0.20",
  "updatedAt": "2020-01-15T03:39:56.844Z",
  "networkType": "ethereum",
  "devdoc": {
    "methods": {}
  },
  "userdoc": {
    "methods": {}
  }
}