{
  "contractName": "ExampleContract",
  "abi": [
    {
      "constant": true,
      "inputs": [],
      "name": "ethusd",
      "outputs": [
        {
          "internalType": "uint256",
          "name": "",
          "type": "uint256"
        }
      ],
      "payable": false,
      "stateMutability": "view",
      "type": "function"
    },
    {
      "constant": false,
      "inputs": [],
      "name": "update",
      "outputs": [],
      "payable": true,
      "stateMutability": "payable",
      "type": "function"
    }
  ],
  "bytecode": "0x608060405234801561001057600080fd5b5061021f806100206000396000f3fe6080604052600436106100295760003560e01c806361150aae1461002e578063a2e6204514610059575b600080fd5b34801561003a57600080fd5b50610043610063565b6040518082815260200191505060405180910390f35b610061610069565b005b60005481565b600073a24df0420de1f3b8d740a52aaeb9d55d6d64478e905060008173ffffffffffffffffffffffffffffffffffffffff1663ed815d838373ffffffffffffffffffffffffffffffffffffffff1663b0667cf86040518163ffffffff1660e01b815260040160206040518083038186803b1580156100e657600080fd5b505afa1580156100fa573d6000803e3d6000fd5b505050506040513d602081101561011057600080fd5b81019080805190602001909291905050506040518263ffffffff1660e01b81526004018080602001828103825260098152602001807f53504f5450582f464200000000000000000000000000000000000000000000008152506020019150506060604051808303818588803b15801561018857600080fd5b505af115801561019c573d6000803e3d6000fd5b50505050506040513d60608110156101b357600080fd5b81019080805190602001909291908051906020019092919080519060200190929190505050505090508060001c600081905550505056fea265627a7a72315820c1f801280daf22b5fd41df684aff4d0b4e68036e80b307f2d9a734e5b271a58664736f6c634300050c0032",
  "source": "pragma solidity ^0.5.0;\n\ninterface Oracle {\n  enum QueryStatus { INVALID, OK, NOT_AVAILABLE, DISAGREEMENT }\n  function query(bytes calldata input)\n    external payable returns (bytes32 output, uint256 updatedAt, QueryStatus status);\n  function queryPrice() external view returns (uint256);\n}\n\ncontract ExampleContract {\n  uint256 public ethusd;\n\n  function update() public payable {\n    Oracle oracle = Oracle(0xa24dF0420dE1f3b8d740A52AAEB9d55d6D64478e);\n    (bytes32 raw,,) = oracle.query.value(oracle.queryPrice())(\"SPOTPX/FB\");\n    ethusd = uint256(raw);\n  }\n}",
  "sourcePath": "/Users/midhilkari/Desktop/SolodityQuiz/contracts/AssetManagement.sol",
  "compiler": {
    "name": "solc",
    "version": "0.5.12+commit.7709ece9.Emscripten.clang"
  },
  "schemaVersion": "3.0.20",
  "updatedAt": "2020-01-06T04:57:24.549Z",
  "devdoc": {
    "methods": {}
  },
  "userdoc": {
    "methods": {}
  }
}